:020000040800F2
:10000000501A00209D0100082D38000879310008A1
:10001000B9370008AB0B00082145000800000000BC
:1000200000000000000000000000000005010008C2
:10003000C90F00080000000049010008713F0008D6
:10004000B7010008B7010008B7010008B7010008B0
:10005000B7010008B7010008B7010008B7010008A0
:10006000B7010008B7010008B7010008B701000890
:10007000B7010008B7010008B7010008B701000880
:10008000B7010008B7010008B7010008B701000870
:10009000B7010008B7010008B7010008B701000860
:1000A000B701000801400008B7010008B7010008C7
:1000B0000D400008B7010008B7010008B7010008AB
:1000C000B7010008B7010008B7010008B701000830
:1000D000B7010008B7010008E5420008B7010008B1
:1000E000B7010008B7010008B7010008DFF810D019
:1000F00000F05EFC00480047CD600008AFF30080D0
:10010000501A0020224B19680868B0E8F00F80F3FD
:100110000988BFF36F8F4FF0000080F311884EF015
:100120000D0E70470000000006480068006880F36C
:10013000088862B661B6BFF34F8FBFF36F8F00DFE1
:1001400000BF00BF08ED00E0EFF30980BFF36F8F41
:100150000F4B1A6820E9F00F106008B54FF05000FF
:1001600080F31188BFF34F8FBFF36F8F06F052FFFC
:100170004FF0000080F31188BDE808401968086856
:10018000B0E8F00F80F30988BFF36F8F704700BFAE
:10019000B0000020EFF3058070470000064880475C
:1001A00006480047FEE7FEE7FEE7FEE7FEE7FEE75C
:1001B000FEE7FEE7FEE7FEE7FD3F0008ED00000872
:1001C000202A04DB203A21FA02F00021704721FAAC
:1001D00002F3D040C2F12002914008431946704713
:1001E00040EA01039B0703D009E008C9121F08C0B9
:1001F000042AFAD203E011F8013B00F8013B521E39
:10020000F9D27047D2B201E000F8012B491EFBD2AF
:1002100070470022F6E710B513460A460446194611
:10022000FFF7F0FF204610BD421C10F8011B00290B
:10023000FBD1801A704710B5002200E0521C835C8D
:100240008C5CA34201D1002BF8D1D8B2E1B2401AA4
:1002500010BD70B5064604F089F9046805460A2207
:100260000021304600F001FA2C6070BDF0B480EA45
:100270000102D40F4200B2EB410F02D202460846FF
:1002800011464A0042D0C30DDDB2C1F3C752AD1AC8
:10029000202D35DAC1F3160141F4000204B15242B7
:1002A000C5F1200602FA06F12A411044B3EBD05FF3
:1002B00023D0C4B1012DA0EBC35009DCF0BC4FF03A
:1002C000004202EAC352DBB200F5000000F00EBAB1
:1002D000400000F1807000EBC350A0F1807040EA54
:1002E000D170490009E0490841EAC071A0EBC35050
:1002F00000F50000400800EBC350F0BC00F0EDB981
:100300006142012202EB4101001BF6E7F0BC70479D
:1003100081F00041AAE780F00040A7E730B480EA0E
:10032000010202F0004530F0004221F0004013D0FD
:1003300090B1C30DD40DC2F31601C0F31600E41A38
:1003400041F4000140F400027D34914201D3641C69
:1003500000E04900002C02DA30BC002070474FF466
:1003600000000023914201D3891A034340084FEA59
:100370004101F7D151B1914202D14FF0004105E066
:1003800002D24FF0010101E06FF0010103EBC45014
:10039000284430BC00F0A1B92DE9FE4F81EA0304E6
:1003A00004F0004421F0004100944FF0000B23F0D2
:1003B000004350EA01045ED052EA03045BD0C3F369
:1003C0000A54C1F30A552C44A4F2F3340194A0FB5F
:1003D0000254C1F3130141F48011C3F3130343F436
:1003E000801301FB024400FB034E840A970A44EA8F
:1003F000815447EA8357A4FB076802958D0A05FBE1
:1004000007854FEA932C04FB0C542705029D4FEA05
:10041000065847EA1637B5EB08056EEB070C870E52
:10042000920E47EA811742EA8312A7FB0201B6EB5C
:100430000B0164EB00042B0D43EA0C335E1844EB14
:100440001C50DA465146E7FB0201C5F313044FEA9C
:100450000B3343EA14534FEA0432019C43EA060388
:10046000A4F10C040294009CCDE900B400F07BF9E7
:1004700003B0BDE8F08F00200146F9E72DE9F04D0B
:1004800081EA030404F0004B21F0004514464FF0CC
:10049000000A23F0004150EA050220D054EA01028C
:1004A0001DD0C5F30A570246C5F31303C1F3130069
:1004B000C1F30A5640F4801543F48013A7EB0608F5
:1004C000101BD64608F2FD3873EB050002D308F185
:1004D000010801E092185B41B8F1000F03DA002037
:1004E0000146BDE8F08D00204FF480110646844699
:1004F0000EE0171B73EB050705D3121B63EB050317
:1005000006434CEA010C49084FEA300092185B415F
:1005100050EA0107EDD152EA030012D082EA04004A
:1005200083EA0501084305D0101BAB4106D2012226
:10053000002306E000224FF0004302E06FF00102CA
:1005400053101AEB06004CEB085110EB0A0041EB7C
:100550000B01BDE8F04D00F0F7B8962300221146DC
:1005600000F0C4B80EB540F2334102910021CDE94C
:1005700000110A460B4600F0F6F803B000BD00F08B
:10058000004230F000400AD0C10D01F56071C0F3A7
:10059000160042EA0151C20840071143704700208B
:1005A0000146704701F0004330B421F0004150EAA9
:1005B000010206D00A0DA2F56072C1F31301002AF0
:1005C00002DC30BC00207047440F44EAC104C10083
:1005D000E01830BC00EBC25000F07FB830B50B46DD
:1005E000014600202022012409E021FA02F59D4263
:1005F00005D303FA02F5491B04FA02F52844151E37
:10060000A2F10102F1DC30BD2DE9F05F05460020CA
:1006100092469B4688460646814640241BE0284673
:10062000414647462246FFF7CBFD53465A46C01A7D
:10063000914110D311461846224600F0CBF92D1AED
:1006400067EB01084F4622460120002100F0C2F965
:1006500017EB00094E41201EA4F10104DFDC4846DF
:1006600031462A464346BDE8F09F2DE9F0479146C2
:100670000F4680460446002614F8015B2DB100F0B9
:10068000CBF90068405DC007F6D12B2D02D02D2D8F
:1006900018D0641E4A463946204600F0C1F927B1F9
:1006A0003968A14201D1C7F8008071054FF00204FA
:1006B0000BD54042002803DD03F058FF0460A0077B
:1006C000BDE8F08746F48066E4E70028F8DA03F036
:1006D0004DFF04606FF00040F2E70029A8BF7047AB
:1006E000401C490008BF20F00100704710B4B0FA68
:1006F00080FC00FA0CF050EA010404BF10BC704703
:1007000049B1CCF1200421FA04F411FA0CF118BF1C
:10071000012121430843A3EB0C01CB1D4FEA0061EB
:100720004FEA102042BF002010BC704700EBC350BE
:1007300010440029A4BF10BC7047401C490008BFEA
:1007400020F0010010BC704710B5141E73F10004B6
:1007500008DA401C41F1000192185B411A4301D1B3
:1007600020F0010010BD2DE9F04D92469B4611B1DD
:10077000B1FA81F202E0B0FA80F22032904600F045
:1007800029F904460F4640EA0A0041EA0B015346A4
:100790005A46084313D0114653EA010019D0C8F154
:1007A00040025046FFF70CFD05460E46504659469E
:1007B000424600F00FF9084305D0012004E020462E
:1007C0003946BDE8F08D0020054346EAE0762C432B
:1007D00037430A986305E40AA0EB08000022FD0AEB
:1007E00044EA47540A3002D500200146E9E70105F2
:1007F00010196941DDE9084500196941BDE8F04D6E
:10080000A2E72DE9FE4F804681EA0300C00F0C46A7
:10081000009021F0004123F00045B8EB0200A9410F
:1008200005D24046214690461C460B46024623F020
:100830000040104347D0270DC7F30A00C3F30A5105
:100840000290401A019040286BDAC3F3130040F481
:10085000801B0098924620B10023D2EB030A63EB81
:100860000B0B01985946C0F14002504600F0B2F817
:1008700006460D4650465946019A00F0BAF810EB6C
:1008800008006141002487EA115284EAE7731A43A1
:1008900040D0009A62B3019A012A4FEA075215DC50
:1008A000001B61EB02014FF0004202EA0752CDE962
:1008B0000042001C41F5801132462B46FFF753FFE2
:1008C00003B0BDE8F08F40462146F9E7001B61EB1D
:1008D0000201001C41F5801300185B412018A2F5AD
:1008E000001747EB030140EAD570B6196D4111E0DE
:1008F0006D084FEA360645EAC0754FEA0752001BFD
:1009000061EB0201001C41F5801149084FEA3000FB
:100910000019514132462B4603B0BDE8F04FFFF7B6
:1009200013BF0098012240000023D0EB020263EBCA
:10093000E073009821464FEAE074B8EB000061EBE9
:100940000401E9E783F000435BE781F0004158E7E9
:10095000C1F30A52C1F3130140F2FF3341F4801195
:100960009A4202DA00200146704740F233439A422D
:10097000A2F2334202DC5242FFF722BC00F02AB856
:1009800030B5041E71F1000404DB4FF00044404216
:1009900064EB0101141E73F1000405DB1C464FF0EB
:1009A0000043524263EB0403994208BF904230BDBA
:1009B000064C074D06E0E06840F0010394E80700AC
:1009C00098471034AC42F6D3FFF794FB607B0008E5
:1009D000807B0008202A04DB203A00FA02F1002084
:1009E00070479140C2F1200320FA03F3194390406D
:1009F0007047202A06DBCB17203A41FA02F043EA7F
:100A0000E07306E041FA02F3D040C2F120029140C7
:100A1000084319467047000000487047F47A000800
:100A20002DE9F05F82460078002715468B460AF1D3
:100A30000104B946302801D09DB113E014F8010B30
:100A40000127782803D0582801D045B10AE00DB11C
:100A5000102D07D10027102514F8010B02E00825FE
:100A600000E00A250026B0460EE005FB080005FB65
:100A700006F1012701EB10461FFA80F8B6F5803F1A
:100A800000D3B94614F8010B294600F018F80028E5
:100A9000EBDABBF1000F05D00FB1641E00E0544645
:100AA000CBF80040B9F1000F06D003F05FFD022142
:100AB0000160C81EBDE8F09F48EA0640FAE73A2800
:100AC00000D2303820F02002412A01D3A2F13700B1
:100AD000884201D34FF0FF307047000070B50446E4
:100AE00000688168C943C9071CD1816821F00101F0
:100AF000816000F099FE05460FE000BF00F094FE13
:100B0000401B022809D9A06A40F01000A062E06AE8
:100B100040F00100E062012070BD20688068C043A1
:100B2000C007EBD0002070BDF8B500260446009643
:100B300000688168C943C90728D0816841F0010174
:100B40008160134813490068B0FBF1F000E0401EDB
:100B500000900028FBD100F067FE054611E000BFC1
:100B600000F062FE401B02280BD9A06A40F0100082
:100B7000A062E06A40F00100E06284F82460012095
:100B8000F8BD20688068C043C007E9D10020F8BDE7
:100B9000A400002040420F0000F00F01000900EB0C
:100BA000800001EB4000C0B27047FEE770B505461B
:100BB000254904F03AFE254C207080B10B222946CD
:100BC000234804F0BBFC207000284FF0640015D0CF
:100BD00005F0E8FE06462B4622781EA129E0642097
:100BE00005F0E0FE06462A4624A12AE0304603F03E
:100BF00099F9304606F008F9207870BD05F0D2FE6C
:100C000006462A462BA103F08DFC304603F08AF9F4
:100C1000304606F0F9F80E4804F024FC2070002855
:100C20004FF0640008D005F0BDFE06462B46227842
:100C300030A103F077FCD9E705F0B4FE06462A465A
:100C400035A103F06FFCD1E7DC0700205C00002039
:100C5000AC0500204552524F52212121204E6F2ECB
:100C600020256420696E206372656174696E672057
:100C700066696C65202A25732A0A0A004552524F7C
:100C800052212121202A25732A20616C726561641A
:100C90007920657869737473212121210A20757385
:100CA00065205570646174655F46696C65200A0A49
:100CB000000000002A25732A206372656174656450
:100CC000207375636365737366756C6C790A204E67
:100CD0006F77207573652057726974655F46696C1C
:100CE0006520746F20777269746520646174610A8D
:100CF000000000004552524F52204E6F2E202564B6
:100D000020696E20636C6F73696E672066696C651D
:100D1000202A25732A0A0A0046696C65202A257351
:100D20002A20434C4F5345442073756363657373A6
:100D300066756C6C790A00000A21B0FBF1F201FBC8
:100D40001202B0FBF1F042EA0010C0B2704700009E
:100D500001221146014800F062BD0000000C014074
:100D600070B50024282004F0BDF90C4D012128465F
:100D700000F048FD50B9502004F0B4F90121284694
:100D800000F040FD08B1012400E0FF2401212846C5
:100D900000F038FD0028F9D1204670BD0008014060
:100DA00070B5054600F056F8FFF7DAFF114C2070D9
:100DB00000F022F8607000F01FF8A07000F01CF83E
:100DC000E07000F019F8207100F016F8E080667805
:100DD000A17823797218E1780A441A44824207D133
:100DE0000846FFF7BAFB28603046FFF7B6FB68609D
:100DF00070BD0000500000202DE9F0410024144F88
:100E000001260121384600F0FDFC0028F9D02820F9
:100E100004F068F90121384600F0F4FC90B1C4F107
:100E2000070106FA01F02843C5B20121384600F057
:100E3000E9FC0028F9D1641CE4B2082CE1D328466F
:100E4000BDE8F081C4F1070006FA00F08543ECE745
:100E50000008014010B500F095F80E4C0121204625
:100E600003F07AF800220121204600F0D8FC44F279
:100E7000506004F037F901221146204600F0CFFC03
:100E8000142004F02FF92046BDE81040012103F0A2
:100E900059B80000000801400FB47CB500201B9E2B
:100EA0008DF804000C4D4FF47A7409E006A800F0A8
:100EB000C1FC042804D009A10E4803F033FBA8802C
:100EC000012301AA314606A8009400F09FFE0028E5
:100ED000ECD17CBC5DF814FB680000204453333235
:100EE0003331207772697465206661696C65640AC4
:100EF00000000000F40700200FB4FEB500208DF8BC
:100F000004001948184E1D9D01788DF80510417890
:100F10008DF8061081788DF80710C1788DF80810CB
:100F200081798DF80B1041798DF80A1000798DF8D0
:100F300009000D3E4FF47A7409E008A800F07AFC2D
:100F4000042804D009A101A803F0ECFAB08008231A
:100F500001AA294608A8009400F058FE0028ECD108
:100F6000FEBC5DF814FB00007500002044533332D2
:100F70003331207772697465206661696C65640A33
:100F8000000000000E48016821F0807101600168D6
:100F900041F0807101600B48016821F0010101609E
:100FA000016841F0010101600021416000BF00BF04
:100FB00000BF406808B10020704701207047000062
:100FC000FCED00E0001000E070470022AFF300806D
:100FD00030B50E4B054601205C7A012C15D8587AA5
:100FE00000241C54587A03EB800045605D7A03F1BD
:100FF00008002A54587A421C5A72303008703A203D
:1010000048702F208870CC70002030BD140900205B
:10101000F0B58DB0142005F0C5FC074616A217A147
:1010200003F080FA3946684604F092FB144C2070B5
:10103000D8B9144D05F109061249684604F0CDFBF4
:10104000207078B9687A68B1287AC00605D531462B
:101050000DA0FFF7F0F80028EED0304604F058FC61
:101060002070E9E7684604F015FA384605F0CCFE32
:1010700020780DB0F0BD00002F00000025730000A7
:101080005C000020DC07002053595354454D7E314D
:1010900000000000F8B50024009490F824202546B4
:1010A000012A12D0012280F824204A681F23072A2F
:1010B0000DD20668776B521E02EB820293409F436B
:1010C0000B6893401F43776319E00220F8BD066860
:1010D0000D2A0AD2376BD21F02EB820293409F4344
:1010E0000B6893401F43376309E0F76A0D3A02EB40
:1010F000820293409F430B6893401F43F7620A6844
:10110000072306680A2A0AD3F7680A3A02EB420262
:1011100093409F438B6893401F43F76008E0376913
:1011200002EB420293409F438B6893401F43376119
:101130000A68102A01D0112A20D1124B02689A4263
:1011400017D193681B0219D4936843F4000393608A
:101150000968102912D10C490C4A0968B1FBF2F157
:1011600001EB8101490000E0491E00910029FBD1FB
:1011700004E0816A41F020018162012480F824505A
:101180002046F8BD00240140A400002040420F008A
:101190000068C06C704700002DE9F0414FF0000777
:1011A00004003D467ED0A06A002628B9E66284F895
:1011B0002460204600F07EF82046FFF78FFCA16AED
:1011C000C90600D420B1A06A40F01000A06269E016
:1011D000A16A21F4885141F00201A1626268E169CB
:1011E000237B0A4347EA43010A43A1684FF480770F
:1011F000B94209D0012907D05FF0000194F814C06A
:10120000BCF1010F02D00AE03946F7E7F3B1A36A57
:1012100043F02003A362E36A43F00103E36223681F
:10122000D3F804C02CF4694C4CEA010CC3F804C098
:1012300021688B68DFF870C003EA0C0313438B60EE
:10124000A168B9420BD0012909D00CE0DFF85CC0DD
:10125000A3690CEB43330B4343F40061DFE7218ABE
:101260000D05A5F580152168CB6A23F470032B4387
:10127000CB62216889680E4B1940914208D1E66221
:10128000A16A21F0020141F00101A162BDE8F081F3
:10129000A06A20F0020040F01000A062E06A40F076
:1012A0000100E0620120F1E7FDF7E1FF00E0FFFF50
:1012B000FE0E1FFF10B586B0002100910191029132
:1012C00003911B4C03681B4802210322A34214D143
:1012D000836943F400738361836903F400730493A7
:1012E000836943F0040383618069CDE9001200F053
:1012F000040004906946104816E0104CA34215D132
:10130000836943F480638361836903F48063049396
:10131000836943F0080383618069CDE9001200F01E
:10132000080004906946064800F07CF906B010BD3C
:101330000024014000100240000801400028014044
:10134000000C01402DE9F84300260D4604460096A6
:1013500000F06AFA804620688168C90508D5A06A4D
:1013600040F02000A06284F824600120BDE8F883EA
:101370004168C90503D4C06A10F4700F26D002205A
:1013800000F0BAFD38490968B1FBF0F7206803693D
:1013900036490B424FEA61014FEAA1121BD1C368E3
:1013A0004FEA611C13EA0C0F15D103690B4221D1DE
:1013B000C06810421ED114201FE0681C06D045B33F
:1013C00000F032FAA0EB0800A84222D8206800689A
:1013D0008007F2D52AE003690B4202D1C1681142AD
:1013E00006D0026922490A4206D1C068084203D1E8
:1013F000542002E0292000E0FC204743009813E03D
:10140000681C0ED02DB100F00FFAA0EB0800A84226
:1014100007D9A06A40F00400A06284F82460032089
:10142000A4E70098401C0090B842E9D321686FF00F
:1014300012000860A06A40F40070A0622068806812
:10144000C0F3424007280CD1207B50B9A06A20F499
:101450008070A062A06AC00403D4A06A40F00100BA
:10146000A062002082E70000A4000020244992240A
:101470004992240070B5044690F8240001280DD04C
:10148000012084F824002046FFF74EFB02004FF0B5
:10149000000005D084F82400104670BD022070BD05
:1014A000A16A40F20123994341F48071A1621F4D6A
:1014B00023681F49AB4218D10E6816F4702F14D060
:1014C000A66A46F48016A6620E68760505D5A66A59
:1014D00026F4005646F48056A662A66AF6040AD59B
:1014E000E66A26F00606E66206E0A66A26F480169C
:1014F000A6625E68E9E7E06284F824006FF002000B
:10150000186020688368C3F34243072B05D1A842C3
:1015100008D1096811F4702F04D0816841F480115A
:101520008160B9E7816841F4A001F9E70028014032
:101530000424014010B5044690F82400012807D087
:10154000012084F824002046FFF7C8FA10B107E014
:10155000022010BDA16A21F4885141F00101A1626D
:10156000002184F8241010BD10B590F8211000243B
:10157000022903D00421816301243DE001680A6847
:1015800022F00E020A6001680A6822F001020A6075
:101590001A4A0168914201D1012121E0174A14320F
:1015A000914201D110211BE0144A2832914201D10D
:1015B000891515E0114A3C32914201D189140FE09E
:1015C0000E4A5032914202D14FF4803108E00B4A6A
:1015D0006432914202D14FF4801101E04FF08071EA
:1015E000064A083A5160012180F82110002180F854
:1015F0002010416B01B18847204610BD0800024011
:1016000070B5044600F010F90546601C02D004488D
:101610000078044400F008F9401BA042FAD370BDE2
:10162000980000202DE9F84FDFF8B891002409F167
:10163000040A0AF1040B23460F270BF1040EC9E03C
:101640000125A5402A40AA427DD1674ED1F804C0A9
:10165000ACEB0608B44532D014DCBCF1030F3AD031
:1016600009DCBCF1000F2AD0BCF1010F1CD0BCF189
:10167000020F31D11DE0BCF1110F17D0BCF1120FD8
:101680002AD119E0B8F5881F19D006DCB8F5803FDB
:1016900015D0B8F5801F1FD111E0B8F5001F0ED08E
:1016A000B8F5041F18D10AE0CB6815E0CB681B1D04
:1016B00012E0CB6808330FE0CB680C330CE08B688A
:1016C0002BB1012B4FF0080303D0456104E0042344
:1016D00002E0056100E00023FF2A01D8064601E090
:1016E00000F104064FEA840501D9A5F12005D6F8DA
:1016F000008007FA05FC28EA0C0803FA05F548EA19
:101700000508C6F800804D68ED0062D5374DAE691A
:1017100046F00106AE61AD6924F0030605F001054F
:101720000095334D06EB050CDCF80850A607360F84
:1017300007FA06F825EA0805DFF8B880404503D126
:101740004FF0000817E044E0DFF8AC80404502D1DC
:101750004FF001080FE0DFF8A480404502D14FF0C0
:10176000020808E0DFF89880404502D14FF00308F6
:1017700001E04FF0040808FA06F848EA0508CCF83A
:1017800008804D68D9F80060ED034D4601D5164339
:1017900000E096432E604D68DAF80060AD035546D0
:1017A00001D5164300E096432E604D68DBF80060DB
:1017B000ED025D4601D5164300E096432E604D686C
:1017C000DEF80060AD02754601D5164300E0964391
:1017D0002E60641C0D682A46E5407FF431AFBDE8F9
:1017E000F88F0000000401400000111000100240BA
:1017F0000000014000080140000C014000100140C1
:10180000001401408068084000D001207047C26881
:1018100021EA02030A4043EA0241016170470AB12A
:10182000016170470904FBE70148806870470000C8
:1018300098000020006C704790F83D007047000051
:1018400070B5040025D094F83D00002520B984F837
:101850003C50204600F070FA242084F83D002068B7
:10186000016821F0010101602068016841F4004134
:1018700001602068016821F40041016000F0D2FCA1
:101880004D4A6168914201D84C4900E04C49884278
:1018900001D2012070BD4B492368B0FBF1F15E68B5
:1018A00026F03F060E435E606368934206D94FF40C
:1018B000967359434FF47A73B1FBF3F12368491CD3
:1018C0001E6A26F03F06314319626168914210D8C2
:1018D0004900401EB0FBF1F2521CC2F30B02042A75
:1018E00001D2042022E0B0FBF1F0401CC0F30B0059
:1018F0001CE0A268F2B301EBC10303EB0116431E27
:10190000B3FBF6F35B1C43F480431B0549D092B351
:1019100001EBC10202EB0111401EB0FBF1F0401CD3
:10192000C0F30B0040F4804040F400402168CA69D5
:101930004CF6FF739A431043C861D4E90710014382
:101940002068026822F0C00211430160D4E903015B
:1019500001432068826848F2FF339A431143816053
:10196000D4E9050108432168CA6822F0FF02104348
:10197000C86001E00EE016E02068016841F0010156
:1019800001602564202084F83D00256384F83E50E2
:10199000002070BD01EB4106431EB3FBF6F35B1C58
:1019A000B3E70120C2E701EB4101401EB0FBF1F0BB
:1019B000401CC0F30B00B7E7A086010080841E0026
:1019C00000093D0040420F002DE9F84F0025DDF8E9
:1019D0002890984617468A4604460095FFF724FF4C
:1019E000064694F83D0020287AD119230122834924
:1019F0002046009601F000FD0028F5D194F83C0047
:101A000001286DD0012084F83C0020680168C907D6
:101A100003D1016841F0010101602068016821F4EF
:101A200000610160222084F83D00102084F83E000F
:101A300025646762A4F82A80608D20857048E06282
:101A400033464A465146204601F0AEFB00287DD180
:101A5000208DDFF8B081202768B1012814D002283A
:101A6000206801681ED041F48061016020684169EE
:101A700080690090B5E02068416981690091016842
:101A800041F400710160ACE02068016821F48061DC
:101A9000016072B62068416981690091016841F472
:101AA00000710AE041F40061016072B6206841698A
:101AB00081690091016821F48061016062B690E063
:101AC000032868D801280CD002284B464FF00002AA
:101AD0004146204600960FD001F08EFCB0BB10E0CE
:101AE0008AE032464946204601F005FD70BB206879
:101AF0000069616A08706BE001F07EFC30BB72B671
:101B000034E02068016821F48061016072B62068C9
:101B10000069616A0870606A401C6062208D401E26
:101B20002085608D401E6085374846F2A811006808
:101B3000B0FBF1F0C0EBC00000EB80000090401E55
:101B4000009008D020684069C04300E029E04007C9
:101B50000CD50098F3E744F8305F6773A5732069EC
:101B600040F02000206162B625731AE02068016809
:101B700041F40071016020680069616A0870606A60
:101B8000401C6062218D491E2185618D491E618541
:101B900062B621681AE032464946204601F0ABFCA5
:101BA00010B10120BDE8F88F20680069616A0870F3
:101BB000606A401C6062218D491E2185618D491E2D
:101BC000618521684A69D24352070AD409690170C4
:101BD000606A401C6062208D401E2085608D401E22
:101BE0006085208D00287FF46BAF84F83D7084F809
:101BF0003E5084F83C50D5E70220D3E702001000A5
:101C00000000FFFF04000100A40000202DE9F84FB0
:101C10001F4690468A460446DDF82890FFF704FEEA
:101C2000054694F83D0020287FD119230122404920
:101C30002046009501F0E0FB002876D194F83C00A6
:101C4000012872D0012084F83C0020680168C9078F
:101C500003D1016841F0010101602068016821F4AD
:101C600000610160212084F83D00102084F83E00CE
:101C700000262664C4F824806785608D20852D4861
:101C8000E0622B464A465146204601F003FB90B9DC
:101C9000206841698069009036E02A46494620461E
:101CA00001F05CFC50B1206C042804D1206801686C
:101CB00041F4007101600120BDE8F88F606A21687D
:101CC00000780861606A401C6062618D491E618510
:101CD000218D491E89B2218522685369DB435B0748
:101CE0000BD451B100781061606A401C6062608D55
:101CF000401E6085208D401E20852A46494620468C
:101D000001F054FB0028CED1208D0028C5D154F815
:101D10003D0B016841F400710160202004F81E09A8
:101D2000E67766770020C7E7FFE70220C4E70000F8
:101D3000020010000000FFFF10B586B000210091E6
:101D400001910291039100680F4988421AD10F4C0A
:101D5000A06940F00800A061A069694600F0080091
:101D60000490C020009012200190032003900848A6
:101D7000FFF758FCE06940F40010E061E06900F40E
:101D80000010049006B010BD005400400010024046
:101D9000000C01400248816802781144816070475C
:101DA00098000020074810B5016841F0100101605B
:101DB000032000F08FF8002000F006F800F03EF855
:101DC000002010BD0020024000B5014687B000226F
:101DD0001C2000F05FF81C2000F04EF81448C16988
:101DE00041F00101C161C06905A900F00100069040
:101DF000684600F0F1F900F015FA0E494000B0FB1A
:101E0000F1F10D484FF08042491E0260416040F2FE
:101E1000E7320021C0E90321816000F057FE10B1D4
:101E2000012007B000BD044800F0A8FEF9E700005B
:101E30000010024040420F00300300200C4808B55B
:101E4000816941F001018161816901F00101009125
:101E5000C16941F08051C161C06900F080500090BB
:101E60000448416821F0E06141F00071416008BD23
:101E70000010024000000140002809DB00F01F02B2
:101E8000012191404009800000F1E020C0F80011DC
:101E900070470000F0B40E4B1B680C46C3F30223DE
:101EA000C3F10705042D00D90425191D072901D206
:101EB000002300E0DB1E012606FA05F1491E214041
:101EC00099409E40761E16403143F0BC02F03EBB66
:101ED0000CED00E0064900F0070208684FF6FF032A
:101EE000184040EA0220034A10430860704700008F
:101EF0000CED00E00000FA0510B529A401461DCC48
:101F000086B08DE81D002AA02A4C006804900020AD
:101F1000012923D002293AD010291DD161682268F5
:101F2000D20119D5C1F38342C9031DF8020009D5B6
:101F3000616804AAC1F34041515C1F4AB2FBF1F150
:101F4000484301E01D4948436168490204D4400008
:101F50005FF00301B0FBF1F006B010BD226AC2F3DE
:101F60000121012903D1920701D5C803F4E7022911
:101F700005D1626A920702D549F64040ECE7032991
:101F8000EAD121688903E7D54FF22440E4E700F065
:101F900059F96168C1F38131491C4900DAE7000051
:101FA00002030405060708090A0B0C0D0E0F10109A
:101FB000010200000010024000127A0000093D00FA
:101FC0002DE9F84305460078354CC00754D0E06948
:101FD0000026C00008D4E06940F08050E061E0696C
:101FE000012600F0805000902E480168C90512D4E7
:101FF0000168804641F480710160FFF715FC0746D7
:1020000005E000BFFFF710FCC01B642823D8D8F8F8
:102010000000C005F6D5206A10F4407021D0A988D0
:1020200001F4407181421CD0206A1F49012220F432
:1020300040700A6000220A602062C00711D0FFF7DA
:10204000F3FB074641F2883808E000BFFFF7ECFBDE
:10205000C11B414502D90320BDE8F883206A8007EF
:10206000F4D5206A696820F44070084320621EB1EC
:10207000E06920F08050E0612878800705D560682D
:10208000A96820F44040084360602878C00605D560
:102090006068E96820F48000084360600020DBE7A6
:1020A0000010024000700040400442422DE9F04719
:1020B0000F46050061D0434E306800F00700B8427B
:1020C00009D2306820F0070038433060306800F0F3
:1020D0000700B84251D128683B4C810712D5400710
:1020E00003D5606840F4E06060602878000703D59D
:1020F000606840F4605060606068A96820F0F0009B
:10210000084360602878C00728D06868012810D08C
:102110002168022810D0890700292EDA616821F091
:10212000030101436160FFF77FFB804641F288397C
:102130000DE021688903EFE78901EDE7FFF774FB04
:10214000A0EB0801494502D90320BDE8F08760688B
:10215000696800F00C00B0EB810FEFD1306800F03F
:102160000700B8420BD9306820F0070038433060D0
:10217000306800F00700B84201D00120E5E7287878
:10218000400705D56068E96820F4E06008436060B6
:102190002878000706D56068296920F4605040EA75
:1021A000C100606000F05EF86168084AC1F3031185
:1021B000515CC8400649086006480068FFF704FE05
:1021C0000020C2E70020024000100240BC79000855
:1021D000A40000209C0000200F2202600C4A5368DB
:1021E00003F003034360536803F0F0038360536814
:1021F00003F4E063C36052684FF4E06303EAD20281
:1022000002610448006800F00700086070470000A1
:1022100000100240002002400148006870470000A2
:10222000A40000200448054900684968044AC1F335
:102230000221515CC8407047A400002000100240F9
:10224000CC7900080448054900684968044AC1F38C
:10225000C221515CC8407047A40000200010024019
:10226000CC79000812A185B00FC98DE80F0014A029
:10227000144A006804905168134801F00C03042BC1
:1022800010D0082B0ED1C1F38343C9031DF80300FE
:102290000AD5516804AAC1F34041515C0A4A50432F
:1022A000B0FBF1F005B0704708494843FAE7000079
:1022B00002030405060708090A0B0C0D0E0F101087
:1022C000010200000010024000127A0000093D00E7
:1022D0002DE9F84F040070D02078C04DC00749D0D8
:1022E0006868C0F38100012807D06868C0F38100E6
:1022F000022809D16868C00306D52868800339D54B
:1023000060680028E7D035E06068B0F5803F0BD00A
:1023100010B1B0F5A02F11D0286820F480302860CB
:10232000286820F4802002E0286840F4803028608B
:10233000606890B1FFF778FA06460AE0286840F432
:1023400080202860F0E700BFFFF76EFA801B64284A
:1023500073D828688003F7D50CE0FFF765FA0646C6
:1023600005E000BFFFF760FA801B6428F0D82868FA
:102370008003F7D420789A4E80074FF001094FF080
:10238000000839D5686810F00C0F07D06868C0F3F2
:102390008100022809D16868C00306D42868800734
:1023A00014D52069012808D110E02069B0B1C6F821
:1023B0000090FFF739FA074605E00AE1FFF734FA23
:1023C000C01B0228C4D828688007F7D5286861692F
:1023D00020F0F80040EAC10028600DE0C6F8008057
:1023E000FFF722FA074604E0FFF71EFAC01B022897
:1023F00023D828688007F7D4207800072CD579489F
:10240000A169D9B1C0F80090FFF70EFA074604E0C1
:10241000FFF70AFAC01B02280FD8686A8007F7D5B1
:1024200071484FF4FA510068B0FBF1F0009000BF22
:102430000098411E0091FAD20EE080E0C0F80080C2
:10244000FFF7F2F9074604E0FFF7EEF9C01B022898
:1024500075D8686A8007F7D42078400760D5E869A6
:102460000027C00008D4E86940F08050E861E869BE
:10247000012700F0805000905C480168C90513D422
:102480000168834641F480710160FFF7CDF982460F
:1024900006E000BFFFF7C8F9A0EB0A0064284ED899
:1024A000DBF80000C005F5D5E06801280AD008B1C6
:1024B000052813D0286A20F001002862286A20F03D
:1024C000040002E0286A40F001002862E06841F25E
:1024D000883B98B1FFF7A8F982460BE0286A40F0E4
:1024E00004002862EEE700BFFFF79EF9A0EB0A01A7
:1024F00059455AD8286A8007F6D50CE0FFF794F9B9
:10250000824605E0FFF790F9A0EB0A0159454CD847
:10251000286A8007F6D41FB1E86920F08050E8618E
:10252000E06988B36968C1F38101022944D00228B7
:10253000C6F8608004D0FFF777F9044638E034E04D
:10254000FFF772F9074604E0FFF76EF9C01B022897
:102550002BD828688001F7D4206AB0F5803F05D1D8
:102560006868A16820F4003008436860D4E9080175
:102570000843696821F4741108436860C6F86090E4
:10258000FFF752F9044606E025E000BFFFF74CF9DB
:10259000001B022809D828688001F7D51BE000BF7E
:1025A000FFF742F9001B022802D90320BDE8F88F8B
:1025B00028688001F4D40EE00128F7D06868226A08
:1025C00000F48031914204D1616A00F470108842B5
:1025D00001D00120EAE70020E8E7000000100240F7
:1025E0000000424280044242A400002000700040EB
:1025F00090F85100704770B5040009D0606A00255A
:1026000040B125616561A56294F8510040B10CE0CC
:10261000012070BD6068B0F5827FF4D0E561F2E71B
:1026200084F85050204600F03FF8022084F8510012
:102630002068016821F040010160A088218900F430
:10264000827001F404410843A18901F40061084348
:10265000217C01F002010843217D01F001010843C2
:10266000218B01F400710843217F01F038010843F8
:1026700094F8201001F080010843218D01F40051ED
:10268000084321680860A069042101EA104021681C
:1026900048602068C16921F40061C161656501205D
:1026A00084F85100002070BD30B585B0002400943E
:1026B00001940294039400681449884223D1144879
:1026C000816941F480518161816901F480510491F3
:1026D000816941F00401816180690E4D00F00400C0
:1026E0000490A020009002200190032003906946EE
:1026F0002846FEF797FF4020CDE9000469462846AA
:102700000294FEF78FFF05B030BD0000003001409D
:1027100000100240000801402DE9F84F044690F8EF
:10272000500000271D461646894601280DD04FF05F
:10273000010B84F850B0FFF777F8804694F8510009
:10274000BA46012804D0022793E00220BDE8F88FA2
:10275000B9F1000F73D0002E71D0032084F851001E
:10276000C4F854A0C4F83090A686E686C4F838A011
:10277000A4F83CA0A4F83EA0C4F844A0C4F840A02B
:10278000A068B0F5004F09D12068016821F0400130
:1027900001602068016841F480410160206801689F
:1027A000490603D4016841F040010160E068B0F5DA
:1027B000006F606803D030B3012E24D041E008B12F
:1027C000012E1CD1206B21680088C86006E02068BB
:1027D0008168890709D5216B0988C160206B801C3D
:1027E0002063E08E401EE08609E0FFF71DF8A0EBB5
:1027F0000800A84202D3681C01D031E07DB3E08E0E
:102800000028E4D120E0206B21680078087306E0FE
:1028100020688168890709D5216B09780173206BCD
:10282000401C2063E08E401EE0860AE0FEF7FCFFBD
:10283000A0EB0800A84203D3681C02D010E017E008
:102840006DB1E08E0028E3D142462946204601F0D2
:10285000D3FA08B120206065A06818B106E0FFE750
:10286000032706E02068C16880680090606D00B1B1
:10287000012784F851B084F850A0384666E72DE966
:10288000F84F044690F8500000270A9E1D469246D5
:102890008B464FF0010901280ED0012084F850002A
:1028A000FEF7C2FF804694F85100616801280CD001
:1028B000B1F5827F07D102E00220BDE8F88FA16860
:1028C00009B9042801D00227C2E0BBF1000F27D0CC
:1028D000BAF1000F24D01DB394F85100042802D09F
:1028E000052084F8510000206065C4F838A0E58711
:1028F000A587C4F830B0E586A586206460642068AA
:102900000168490603D4016841F040010160E068B4
:10291000B0F5006F606805D0E8B3012D46D07FE0C8
:10292000012795E008B1012D39D1206B216800887D
:10293000C860206B801C2063E08E401EE0862EE085
:102940002068816889070FD5E18E69B1B9F1010F5F
:102950000AD1216B0988C160206B801C2063E08E46
:10296000401EE0864FF0000920688168C9070CD03E
:10297000E18F51B1C068A16B0880A06B801CA0637F
:10298000E08F401EE0874FF00109FEF74DFFA0EBFE
:102990000800B04200E009E001D3701C50D1E08E85
:1029A0000028CDD1E08F0028CAD13FE0206B2168FC
:1029B00000780873206B401C2063E08E401EE08688
:1029C0002EE02068816889070FD5E18E69B1B9F1E1
:1029D000010F0AD1216B09780173206B401C206321
:1029E000E08E401EE0864FF0000920688168C9072C
:1029F0000CD0E18F51B1C068A16B0870A06B401C76
:102A0000A063E08F401EE0874FF00109FEF70CFF46
:102A1000A0EB0800B04202D3701C01D010E07EB1E0
:102A2000E08E0028CDD1E08F0028CAD14246314641
:102A3000204601F0E1F928B101272020606507E078
:102A4000032705E0A06818B92068C1688068009075
:102A5000012084F85100002084F8500038462CE70B
:102A60007047704770B590F83C20012A26D00124A9
:102A700080F83C40022280F83D2003685A689D6837
:102A800022F070060A6832435A600D4B02689A427F
:102A900008D0B2F1804F05D00A4B9A4202D00A4BBF
:102AA0009A4204D1496825F080031943916080F867
:102AB0003D40002180F83C10084670BD022070BDEA
:102AC000002C0140000400400008004010B5040044
:102AD00003D094F83D0010B107E0012010BD0020A4
:102AE00084F83C00204600F01FF8022084F83D00E6
:102AF000211D206801F0A0FA012084F8460084F826
:102B00003E0084F83F0084F8400084F8410084F8D7
:102B1000420084F8430084F8440084F8450084F8B7
:102B20003D00002010BD000008B5114A01681148A1
:102B3000914211D1816941F4006181618069002273
:102B400000F40060009011461920FFF7A3F9BDE8DA
:102B500008401920FFF790B9074A914207D1C1698F
:102B600041F00201C161C06900F00200009008BD9F
:102B7000002C0140001002400004004090F83D107D
:102B8000012901D001207047022180F83D10016821
:102B9000CA6842F00102CA6000680B49884208D046
:102BA000B0F1804F05D00949884202D008498842D7
:102BB00004D1816801F00701062903D0016841F0C2
:102BC0000101016000207047002C0140000400401A
:102BD0000008004070B5044690F83C00012817D06A
:102BE000012584F83C50022084F83D00206882686A
:102BF00022F0770222F47F4282600868502830D0A9
:102C00000DDC20284DD005DC98B310283BD148E0DE
:102C1000022070BD302844D0402834D139E06028EB
:102C200028D0702806D0B0F5805F2CD0B0F5005FBA
:102C300029D10AE0CB68D1E90121206801F032FAFC
:102C40002068816841F0770109E0CB68D1E9012172
:102C5000206801F027FA2068816841F48041816092
:102C600011E0CA684968206801F02EFA50212068F6
:102C700007E016E0CA684968206801F036FA60216A
:102C8000206801F019FA84F83D50002084F83C00D7
:102C900070BDCA684968206801F016FA40212068B2
:102CA000EFE7226801461046EBE7704770B504462F
:102CB000006801694FF00005C943890715D4C16850
:102CC000C943890711D4E91E0161012020772068DA
:102CD00080698007204602D0FFF7E7FF04E000F09C
:102CE00098F8204600F096F8257720680169C943D6
:102CF000490717D4C168C943490713D46FF00401C9
:102D00000161022020772068806910F4407F20460E
:102D100002D0FFF7CAFF04E000F07BF8204600F085
:102D200079F8257720680169C943090716D4C16875
:102D3000C943090712D46FF008010161042020770C
:102D40002068C0698007204602D0FFF7AEFF04E08C
:102D500000F05FF8204600F05DF8257720680169F3
:102D6000C943C90617D4C168C943C90613D46FF053
:102D700010010161082020772068C06910F4407FAD
:102D8000204602D0FFF791FF04E000F042F8204611
:102D900000F040F8257720680169C943C90708D1C8
:102DA000C168C943C90704D1891E0161204600F0EA
:102DB00032F820680169C943090609D4C168C943CA
:102DC000090605D46FF0800101612046FFF748FE37
:102DD00020680169C943490609D4C168C943490645
:102DE00005D46FF040010161204600F01BF8206817
:102DF0000169C94389060BD4C168C943890607D450
:102E00006FF0200101612046BDE87040FFF729BE48
:102E100070BD704770470068B0F1804F01D1FEF778
:102E2000B9BF70477047704770B5026804461068B4
:102E3000D168536910F00F0F52D003F0010501F46F
:102E400090762E435FD0C20705D0CA0503D5E26B4A
:102E500042F00102E263420705D5DA0703D0E26BD4
:102E600042F00202E263820705D5DA0703D0E26B83
:102E700042F00402E263020707D501F020022A4370
:102E800003D0E26B42F00802E263E26B002A33D027
:102E9000800604D5880602D5204601F04EF9206848
:102EA0004069E16BC0F38010090700D428B32046C5
:102EB00001F035F92068416949061AD5416921F0C8
:102EC00040014161606BA0B12D494163606BFEF729
:102ED0004BFB002810D0606B416BBDE87040084789
:102EE000830610D58B060ED52046BDE8704001F054
:102EF00024B92046FFF797FF70BD2046FFF793FFE8
:102F00000020E06370BD03062BD50B0629D594F88D
:102F100039002128F6D1A068B0F5805F01D1206981
:102F2000B0B1206A411C2162216800784860E08CC1
:102F3000401E0004000CE084E4D12068C16821F048
:102F40008001C1602068C16841F04001C16070BD6E
:102F5000206A0088C0F308005060206A801C20624C
:102F6000E5E74006F3D54806F1D5D168204621F0C3
:102F70004001D160202184F8391000F0FCF870BDC8
:102F80000F41000870B5040004D094F83900002502
:102F900010B106E0012070BD84F83850204600F0E2
:102FA00023F8242084F839002068C16821F40051F6
:102FB000C160204601F008F92068016921F49041C0
:102FC00001612068416921F02A0141612068C168DE
:102FD00041F40051C160E563202084F8390084F891
:102FE0003A00002070BD00002DE9F04385B00025B7
:102FF0000646009501950295039500682C492D4CD5
:103000002D4F4FF002084FF00309884220D1A069EC
:1030100040F48040A061A06900F480400490A06961
:1030200040F00400A061A069CDF80C9000F004000D
:1030300004904815CDE9000869463846FEF7F2FAD3
:103040002015CDE90005694638460295FEF7EAFAF3
:103050001A493068884228D1E06940F40030E061C4
:10306000E06900F400300490A06940F00400A06121
:10307000A069694600F0040004900420CDE900082E
:10308000CDF80C903846FEF7CDFA0820CDE90005C2
:10309000694638460295FEF7C5FA002211462620F9
:1030A000FEF7F8FE2620FEF7E7FE05B0BDE8F08348
:1030B0000038014000100240000801400044004078
:1030C000704700002DE9F843044690F839001F4688
:1030D00016460D4620284CD1C5B1BEB194F8380033
:1030E000012846D0012084F838004FF00008C4F8C9
:1030F0003C80212084F83900FEF796FBA6848146A7
:10310000E684A068B0F5805F03D004E00120BDE84C
:10311000F883206928B12E465FF0000584F83880D6
:103120000EE00026FAE78021204601F0A9F8A0B9B8
:10313000AEB116F8010B21684860E08C401EE084B7
:10314000E08C4B464FF0000200970028EBD14FF087
:103150004001204601F094F830B10320D7E735F85C
:10316000020BC0F30800E6E7202084F839000020B5
:10317000CDE70220CBE77047FEE701684A69D243FA
:1031800052050FD46FF480624A61002140F8301F6D
:10319000202242738173026942F0040202610173CA
:1031A00001207047002070472DE9F84F0446C06A9F
:1031B0001E4693460D4621680A6842F480620A6002
:1031C000082807D0012805D010F5803F02D0206BD9
:1031D000112804D12068016841F4807101604FF02A
:1031E00001195B46002249462046009600F004F98A
:1031F0004FF4007840B120680068C00501D5C4F8DC
:1032000040800320BDE8F88F2069DFF884A0B0F586
:10321000804F0FD00620216800EAD51747F0F00054
:10322000086133465A460AF10601204600F018F9B3
:1032300058BB03E0E8B240F001001CE02168E8B2AE
:10324000086133465A465146204600F009F9E0B974
:103250002068416981690091016841F480710160D1
:103260005B46002249462046009600F0C5F800283B
:10327000C1D147F0F1002168086133465A465146F2
:10328000204600F0EDF80028BCD00120BAE700008D
:1032900002000100F8B50446C06A1E460D461746F6
:1032A000082807D0012805D010F5803F02D0206BF8
:1032B000122804D12068016841F48071016013462E
:1032C00000224FF001112046009600F095F840B121
:1032D00020680068C00502D54FF400702064032008
:1032E000F8BD2069B0F5804F0ED00620216800EAB5
:1032F000D51040F0F000086133463A460B492046AD
:1033000000F0AEF878B902E005F0FE0000E0E8B2A7
:1033100021680861054933463A46891F204600F076
:103320009FF80028DCD00120F8BD00000800010053
:103330000FB4F8B5164D4FF47A741B9E09E006A839
:10334000FEF778FA042804D012A1174801F0EAF831
:10335000A8800F4A0723921D314606A80094FEF765
:1033600033FB0028EBD10A48801DC11D02780A708A
:1033700042784A7082788A70C278CA7002790A717B
:1033800042794A7180798871F8BC5DF814FB0000BD
:103390006800002044533332333120726561642069
:1033A0006661696C65640A00F407002070B5164612
:1033B0000D4604460DE02046FFF7DFFE08B1012070
:1033C00070BD681C05D0FEF72FFA801BA84207D8F5
:1033D00035B120684069C0434007ECD4002070BD7F
:1033E000002044F8300F20216173A073216941F05F
:1033F000200121612073E2E72DE9F0471E46904647
:103400000D460446C1F30747DDF8209008E0701C24
:1034100006D0FEF709FAA0EB0900B0420FD876B14A
:103420002068012F18D0806925EA00000004000CF4
:1034300014D000214145EAD00020BDE8F0870020EB
:1034400044F8300F20216173A073216941F02001FD
:10345000216120730120F0E74069E5E70121E9E7F8
:103460002DE9F0479A4691460E46044600254FF056
:103470002008C1F3074725E020684069C0434005A4
:1034800014D42068016841F40071016021686FF470
:1034900080604861256384F83D8084F83E50206C4C
:1034A00040F00400206484F83C501FE0B9F1FF3F75
:1034B00008D0FEF7B9F9A0EB0A0149450CD8B9F1DB
:1034C000000F09D02068012F13D0806926EA000080
:1034D0000004000C0BD0CFE744F8305F84F80D8077
:1034E000A573206940F02000206125730120BDE80C
:1034F000F0874069EAE72DE9F041002590460E4645
:103500000446202717E04069C043C0060CD454F895
:10351000301B6FF01000486144F810596777A577A9
:10352000206A2062257717E0FEF77EF9A0EB0800FD
:10353000B04208D83EB120684169C9434906E2D487
:103540000020BDE8F08144F8305F6773A5732069FF
:1035500040F02000206125730120F2E770B5164687
:103560000D4604460DE02046FFF707FE08B1012096
:1035700070BD681C05D0FEF757F9801BA84207D81C
:1035800035B120684069C0430006ECD4002070BD0E
:10359000002044F8300F20216173A073216941F0AD
:1035A000200121612073E2E73EB500250D4800951A
:1035B000019502950A49856001600124047305752F
:1035C00045604FF460210461C161FDF7E5FD0094A1
:1035D00069460448CDE90145FDF75CFD3EBD0000AC
:1035E00000240140140100203EB500240D48009441
:1035F000019402940A4984600160012505730475F1
:1036000005614FF460214460C161FDF7C5FD0920EB
:10361000CDE90005694602940248FDF73BFD3EBD39
:10362000002801404401002010B504490448FDF77A
:10363000CCFC0249491E087010BD0000910000201A
:103640007C000020F0B585B000241F480094019450
:1036500002940394816941F020018161816901F044
:1036600020010491816941F004018161816901F0C7
:1036700004010491816941F0080181618069134F5F
:1036800000F008000490002201213846FEF7C7F838
:103690000125CDE9005469460D480294FDF7C2FFAB
:1036A000022603960095CDE9015469463846FDF798
:1036B000B9FF0820CDE90005CDE902466946384644
:1036C000FDF7B0FF05B0F0BD00100240000C014056
:1036D000000801400C480B494FF4007201604FF4A0
:1036E0008271416000218160C1600161C0E9051201
:1036F0002022C0E90721416281620A21C162FEF7EE
:103700007ABF0000003001407401002010B586B07F
:1037100000241348009401940294039404940F49E4
:10372000059401604EF65F21C0E9011440F2CF71AB
:10373000C0E9031444618461FFF7C8F94FF4805075
:10374000009069460648FFF745FA2020CDE90404B9
:1037500004A90348FFF786F906B010BD002C01400C
:10376000CC01002010B586B00024124800940194CA
:103770000294039404940E49059401603B21C0E92E
:1037800001144FF6FE71C0E903148461FFF79EF93E
:103790004FF48050009069460648FFF71BFA0494E6
:1037A00004A904480594FFF75DF906B010BD0000B8
:1037B0000004004014020020FEE7000010B501469E
:1037C0000122064801F07CFE0549087008B105A0F9
:1037D00000E00DA0BDE8104000F0A4BB780300207D
:1037E0005C0000204552524F5221212120696E2059
:1037F0006D6F756E74696E67205344204341524467
:103800002E2E2E0A0A000000534420434152442029
:103810006D6F756E7465642073756363657373662D
:10382000756C6C792E2E2E0A000000007047000087
:103830000648417811B14178491E417081780029CC
:1038400002D08178491E8170704700004C00002032
:103850007CB541F6FF75FDF77BFA0024FF2000F0F0
:10386000F5FA641C0A2CF9DB00F0BEFA40208DF852
:10387000000000208DF801008DF802008DF8030093
:103880008DF8040095208DF8050000246E46305D0B
:1038900000F0DCFA641C062CF9DB00E06D1E00F081
:1038A000BBFA012801D0002DF8D1FDF751FAFF2015
:1038B00000F0CCFA0149012048707CBD580000207E
:1038C00010B5064C3220207000F0A6FA00F0A4FAE1
:1038D000FF2802D021780029F8D110BD4E00002029
:1038E0002DE9F041114D04460A200E4685F80000EE
:1038F00000F092FAFF2804D0FE2806D00020BDE890
:10390000F08128780028F3D1F8E72746651C00F0FD
:1039100083FA38706C1C00F07FFA2870B61EF4D160
:1039200000F07AFA00F078FA0120E8E74D00002074
:1039300070B50C460546FFF7C3FFFF2801D0FF20F6
:1039400070BD284600F082FA200E00F07FFAC4F322
:10395000074000F07BFAC4F3072000F077FAE0B2EA
:1039600000F074FA0020402D06D0482D06D000F05B
:103970006DFA4C2D06D007E0952000E0872000F07E
:1039800065FA01E000F048FA5FF00A0400F044FA3A
:103990000106D5D5641E14F0FF04F7D170BD0000F8
:1039A00070B50E4604460025FFF78AFFFF2828D190
:1039B000304600F04BFAFD2E1FD00026207800F094
:1039C00045FA6078A41C00F041FA761E16F0FF0656
:1039D000F4D100F021FA00F01FFA00BF00F01CFA49
:1039E000044600F01F00052803D06D1CEDB2402DE9
:1039F000F4D900F011FA0028FBD004F01F000528CC
:103A000001D0002070BD012070BD00002DE9F843F9
:103A100010B10120BDE8F883DFF8208198F800009C
:103A2000800702D598F80000F4E7FFF711FF00F0D7
:103A3000DBF9002421464020FFF77AFF01286CD1F2
:103A40003F4E642030704FF4D5714820FFF770FF6F
:103A500001280DD000217720FFF76AFF01283ED80A
:103A600000216920FFF764FF012838D802243DE0D7
:103A700000256F4600F0D0F978556D1CEDB2042D8D
:103A8000F8D39DF80200012847D19DF80300AA2829
:103A900043D1450700217720FFF74AFF012804D8CA
:103AA00029466920FFF744FF10B130780028F1D192
:103AB000307890B300217A20FFF73AFF68BB0024EA
:103AC00000F0AAF93855641CE4B2042CF8D39DF830
:103AD0000000400601D506241FE002241DE0012459
:103AE00001E0022C02D00021412007E000217720D4
:103AF000FFF71EFF012804D800216920FFF718FFF7
:103B000010B130780028ECD1307828B14FF4007132
:103B10005020FFF70DFF00B10024454688F8024011
:103B2000FDF716F900F078F924B1287820F00100AB
:103B3000287001E00020687028786BE758000020AA
:103B40004D0000207FB515460E4610B1042004B08C
:103B500070BD01244B48052E04D00078C00715D055
:103B60000320F4E747492A7849782AB1012A07D087
:103B7000022A08D0042482E031B10021417003E020
:103B8000FFF766FE00E06970002478E000F02CF991
:103B90000B2E52D005DCE6B3012E07D0022E69D1E0
:103BA00042E00C2E4CD00D2E64D155E0002149206E
:103BB000FFF7BEFE70BB10216846FFF791FE48B3C9
:103BC0009DF800100120B0EB911F0AD19DF808204C
:103BD0009DF8091000EB02200844000480092860C9
:103BE00038E09DF805009DF80A1000F00F0000EB8A
:103BF000D1109DF809109DF8072001F0030100EB9A
:103C000041009DF80810890901EB82019DF806200A
:103C100001E00DE02FE002F0030201EB8221C01F62
:103C2000491C8140296015E04FF40070288011E0A4
:103C3000FFF746FEFF280DD01DE00021492001E0DE
:103C400000214A20FFF774FEA8B910212846FFF78B
:103C500047FE80B100240EE000217A20FFF768FEC5
:103C600040B9002400F0D8F8641CE4B205F8010B58
:103C7000042CF7D30424FDF76BF800F0CDF82046B0
:103C800065E70000580000202DE9F0411C4615466C
:103C90000E4638B934B121480178C90704D0032051
:103CA000BDE8F0810420FBE78078400700D455028E
:103CB00000F09AF84FF40077012C294604D05220E6
:103CC000FFF736FE70B11AE05120FFF731FEE0B980
:103CD00039463046FFF704FEB8B1FDF739F800F079
:103CE0009BF818E039463046FFF7FAFD18B1641E1C
:103CF00006F50076F6D100214C20FFF719FEFDF7FE
:103D000027F800F089F824B905E0FDF721F800F064
:103D100083F80120C4E70020C2E70000580000201B
:103D200008B1012070470148007870475800002012
:103D30002DE9F0411C4616460F4638B934B1294DDD
:103D40002878C00704D00320BDE8F0810420FBE7F9
:103D50002878400701D50220F6E7A878400700D46C
:103D6000560200F041F8012C10D0A878800707D542
:103D700000217720FFF7DCFD21465720FFF7D8FD13
:103D800031465920FFF7D4FD78B11CE03146582068
:103D9000FFF7CEFDF0B9FE213846FFF701FEC8B1AE
:103DA000FCF7D6FF00F038F819E0FC213846FFF7A1
:103DB000F7FD18B1641E07F50077F6D1FD2100204C
:103DC000FFF7EEFD30B1FCF7C3FF00F025F834B18A
:103DD0000120B9E7FCF7BCFF00F01EF8F8E700206F
:103DE000B2E7000058000020002201210148FDF741
:103DF00016BD0000000C014038B50B460092044689
:103E00000022802100F032F8002804D0606D40F0DC
:103E100020006065032038BD0EB5FF208DF8080036
:103E200000208DF804000848FEF7E2FB0128FAD1D3
:103E30004FF47A700090012301AA02A90248FEF70C
:103E40001EFD9DF804000EBD7401002001B506485A
:103E5000FEF7CEFB0128FAD14FF47A7301226946AE
:103E60000148FEF759FC08BD740100202DE9F84314
:103E70001E46914688460446089DFDF7D5FC401B2A
:103E8000351AFDF7D1FC074625480068C0F3CB3052
:103E9000684338E0701C37D0FDF7C6FCC01BA84251
:103EA00003D215B1009860B32CE02068416821F07E
:103EB000E00141606068B0F5827F0BD1A068B0F589
:103EC000004F02D0B0F5806F04D12068016821F066
:103ED00040010160A06AB0F5005F09D12068016867
:103EE00021F4005101602068016841F40051016033
:103EF000012084F85100002084F850000320BDE820
:103F0000F8830025401E00902068816838EA01008F
:103F100004D000214945BDD10020F0E70121F9E797
:103F2000A400002010B50446FCF77EF9214682B2B9
:103F3000BDE810404FF0FF330148FFF7C3B8000061
:103F40005C0200201FB500220091019202920392B0
:103F50006946FDF767FB1FBD1FB5002200910121D7
:103F6000CDE90112022103916946FDF75BFB1FBDFC
:103F700010B5502080F31188BFF34F8FBFF36F8FC0
:103F800003F086FB18B104494FF080500860002010
:103F900080F3118810BD000004ED00E030B593B04F
:103FA00028216846FCF735F914210AA8FCF731F9F5
:103FB000002401200F9410941194010412948DE8B0
:103FC000130004904FF4E010CDE908100225079586
:103FD0006846FEF77DF90F20CDE90A056802CDE9B4
:103FE0000C4002210AA80E94FEF760F8A803119075
:103FF0000F950FA8FDF7E4FF13B030BD7047000028
:104000000148FEF753BE0000CC010020084810B55F
:104010000178491C017001780A2903D3002101703D
:10402000FFF706FCBDE810400248FEF73FBE000067
:104030004C00002030030020F0B50268164B174CEE
:10404000174D4FF08047984205D0B84203D0A042A8
:1040500001D0A84203D122F070064A683243984248
:1040600005D0B84203D0A04201D0A84203D122F427
:104070004074CA6822434C6922F0800222430260E5
:104080008A68C2620A688262984201D10969016342
:1040900001214161F0BD0000002C014000040040FE
:1040A0000008004010B5846842EA032224F47F44EB
:1040B0000A432243826010BD826822F070020A43E4
:1040C00042F007018160704710B5036A046A24F06A
:1040D00001040462846924F0F00444EA021423F029
:1040E0000A020A438461026210BD10B5036A23F01C
:1040F000100303628369046A23F4704343EA0232C3
:1041000024F0A00343EA01118261016210BD10B5E1
:10411000406A0021C185C184FEF785FE10BD01689B
:10412000CA6822F49072CA6001684A6922F00102EA
:104130004A61202180F83A10704710B590F83A1083
:10414000222901D0022010BD82684FF480539A4288
:1041500001D1016921B1816A9A421BD04AB10AE0BA
:104160000268816A5268C2F308020A80816A891C67
:1041700008E0026972B10268526802F07F020A70B8
:10418000816A491C8162C18D491E0904090CC185DF
:1041900003D016E002685268F1E70168CA6822F0AD
:1041A0002002CA600168CA6822F48072CA6001688D
:1041B0004A6922F001024A61202180F83A10FEF794
:1041C0007FFF002010BD000070B504460068016943
:1041D000E26821F44051114301612169A06808435C
:1041E000616908432168CA6841F20C639A4302433B
:1041F000CA6020684169A26921F44071114341619C
:104200001E492068884202D1FEF71CF801E0FEF743
:1042100009F800EBC00101EB001260686421800026
:10422000B2FBF0F3B3FBF1F36FF018067343B2FB8C
:10423000F0F5B2FBF0F605EB8305322303EB051531
:10424000B5FBF1F5B6FBF1F605F0F00505EB06154B
:10425000B2FBF0F6B2FBF0F0B0FBF1F06FF0180239
:10426000504306EB800003EB0010B0FBF1F0216837
:1042700000F00F002844886070BD00000038014045
:104280002DE9F041984617460E460446069D1DE06E
:10429000681C1BD02DB1FDF7C7FAA0EB0800A8429F
:1042A00014D92068C16821F4D071C16020684169C7
:1042B00021F001014161202084F8390084F83A009E
:1042C000002084F838000320BDE8F08120680068F1
:1042D00036EA000004D00020B842D9D00020F3E72D
:1042E0000120F9E70148FEF79FBD00009C02002075
:1042F000FFF78CBBFFF726BCFFF7C6BCFFF710BD6E
:10430000FFF716BD10B501460122002001F0D8F8D4
:104310000449087020B104A0BDE81040FFF702BEB8
:104320000AA0F9E75C0000204552524F522121219A
:1043300020696E20554E4D4F554E54494E472053DF
:104340004420434152440A0A0A00000053442043D7
:1043500041524420554E4D4F554E5445442073759F
:10436000636365737366756C6C792E2E2E0A0A0A68
:104370000000000070B50E460546314901F055FABF
:10438000304C207030B1642002F00CFB06462A4607
:104390002DA151E032222946334801F0CFF8207098
:1043A00078B1642002F0FEFA06462B4622782FA14F
:1043B0003AE03046FFF7B6FD304602F025FD2078A2
:1043C00070BD3046FBF730FF1E4B024608333146C6
:1043D000254801F0F3FA207000284FF0640008D05F
:1043E00002F0E0FA06462B4622782AA100F09AF85D
:1043F00006E002F0D7FA06462A4630A100F092F80D
:104400003046FFF78FFD304602F0FEFC164801F003
:1044100029F8207000284FF0640008D002F0C2FA9A
:1044200006462B4622782CA100F07CF8C1E702F06A
:10443000B9FA06462A4632A100F074F8B9E700003E
:10444000DC0700205C0000204552524F5221212100
:10445000202A25732A20646F6573206E6F7420658F
:1044600078697374730A0A00AC0500204552524FF4
:1044700052212121204E6F2E20256420696E206F4D
:1044800070656E696E672066696C65202A25732ADF
:104490000A0A00004552524F52212121204E6F2E10
:1044A00020256420696E2077726974696E672066C2
:1044B000696C65202A25732A0A0A00002A25732AB6
:1044C00020555044415445442073756363657373AC
:1044D00066756C6C790A00004552524F52212121B9
:1044E000204E6F2E20256420696E20636C6F7369E7
:1044F0006E672066696C65202A25732A0A0A000007
:1045000046696C65202A25732A20434C4F53454445
:10451000207375636365737366756C6C790A00004C
:10452000FEE700000FB4084B10B504A902AA0398D7
:1045300000F0F2F8044602A9002000F070FC2046CA
:1045400010BC5DF814FB00001F4E00080907090E9F
:10455000002804DB00F1E02080F80014704700F030
:104560000F0000F1E02080F8141D704700487047EC
:104570001001002002E008C8121F08C1002AFAD169
:1045800070477047002001E001C1121F002AFBD1D3
:10459000704700002DE9FF5F82B00021DDE90430A3
:1045A000020DDDF840B0034318D044F61050A2F2DB
:1045B000FF3242431514119801281FD0A5EB0B00C0
:1045C000401C5FEA000A4FF000064E4FDFF83891BA
:1045D000B046504615D5CAF1000413E011980124E5
:1045E0004AA3012801D16FEA0B010298119AC0E990
:1045F0000031C0E9024206B0BDE8F09FCBF10000F7
:10460000DFE704460021404A491842EB0450CDE957
:10461000001012E0E00707D032463B4640464946CC
:10462000FBF7BAFE8046894632463B46104619469D
:10463000FBF7B2FE06460F466410002CEAD1DDE916
:104640000401DDE90023BAF1000F06DAFBF7A4FE4E
:1046500042464B46FBF7A0FE05E0FBF70FFF424644
:104660004B46FBF70BFF04460E460022284BFCF797
:1046700087F903D84FF0FF30014607E00022254BB1
:1046800020463146FCF7BDF8FCF762F9102409E03A
:10469000002C0ADB0A220023FBF7B6FF039B303213
:1046A0001A55641E50EA0102F2D1641C039AC4F147
:1046B00011031444119A012A03D0012208430DD199
:1046C0000AE0084304D000204FF0110B119072E76C
:1046D000A3EB0B056D1E0DE05B4504DD4FF0000202
:1046E00005F1010504E003DA4FF00002A5F1010530
:1046F000002AECD002981199C0E90231C0E90045C6
:1047000079E70000000014400000F03F3000000096
:104710000000F0430000E03F2DE9FF4F95B09A46BE
:10472000884606460025EEE1252877D10024274655
:10473000F94A0121039400E0044316F8013F203BAD
:1047400001FA03F01042F7D130782A2811D06FF027
:104750002F033078A0F13002092A16D8039A44F0CA
:10476000020402EB820203EB42021044761C039027
:10477000EFE758F8042B0392002A03DA504244F47E
:104780000054039044F00204761C30782E2816D191
:1047900016F8010F44F004042A280DD06FF02F0200
:1047A0003078A0F13003092B09D807EB870302EB1F
:1047B0004303C718761CF3E758F8047B761C30785F
:1047C0006C280FD006DC4C2817D068280DD06A283A
:1047D00014D104E0742810D07A280FD10DE044F4ED
:1047E00000140AE044F4801401E044F440147278A8
:1047F000824202D104F58014761C761C307866283B
:104800000BD013DC582877D009DC002875D0452858
:10481000F6D04628F4D047281AD193E118E063284F
:1048200035D0642879D0652812D18BE1702873D0F7
:1048300008DC6728F1D069286FD06E280DD06F286A
:1048400006D1ACE073282CD0752874D0782853D0CA
:104850005246179990476D1C54E1C4F30250022848
:1048600009D003280DD0D8F8001004280DD00D6011
:1048700008F1040846E1D8F80010EA17C1E900522F
:10488000F6E7D8F800100D80F2E70D70F0E718F8A1
:10489000041B8DF8001000208DF80100EB4601206C
:1048A00003E058F804BB4FF0FF3061074FF0000100
:1048B00002D40DE009F101018946B9420FDA8145C0
:1048C000F8DB1BF809100029F4D108E009F1010117
:1048D00089468142FADB1BF809100029F6D10398BA
:1048E0005346A0EB090721463846179A00F080FA94
:1048F000284400EB090507E044E008E10DE01BF85F
:10490000010B524617999047B9F10109F7D2534666
:1049100021463846179AF2E039E00A21C4F30252E0
:104920004FF0000B0091022A06D058F8040BC11773
:10493000032A09D00AE023E008F1070020F007026B
:10494000F2E80201904605E000B2C117042A01D145
:1049500040B2C117002906DA0A460021404261EB45
:1049600002012D2202E0220504D52B228DF804201D
:10497000012203E0E20701D02022F7E7914657E049
:104980000A2100E010214FF0000B00910BE01021F4
:104990004FF0000B44F004040827009103E00820C6
:1049A0004FF0000B0090C4F30252022A05D058F8D1
:1049B000040B0021032A08D008E008F1070020F0CA
:1049C0000702F2E80201904603E080B2042A00D117
:1049D000C0B24FF0000922072AD53278702A07D0DA
:1049E000DDF800C08CF0100C5CEA0B0C05D00EE07A
:1049F00040228DF80420012208E050EA010306D08D
:104A000030238DF804308DF8052002229146009B5A
:104A100083F0080353EA0B030AD150EA010201D1E3
:104A2000620705D530228DF804204FF001097F1E62
:104A30003278582A04D039A20C920CAA02920BE0C8
:104A40003BA2F9E75B46009AFBF7DEFD0C9B9B5C03
:104A5000029A521E0292137050EA0102F2D1029899
:104A600004A9081A00F1200B600702D524F4803451
:104A700000E001275F4502DDA7EB0B0000E000200E
:104A800000EB0B01009003984944401A0390E003A7
:104A900006D453462146179A039800F0A9F9054415
:104AA000002706E001A85246C05D179990476D1C8B
:104AB0007F1C4F45F6DBE0030CD553462146179A81
:104AC000039800F095F9054404E030205246179908
:104AD00090476D1C0099481E00900029F5DC08E005
:104AE0000298029952460078491C02911799904702
:104AF0006D1CBBF10001ABF1010BF1DC5BE100F0DF
:104B000065F90544761C307800287FF40DAE19B0A5
:104B10002846BDE8F08F000009280100303132330B
:104B200034353637383961626364656600000000E9
:104B300030313233343536373839414243444546D3
:104B400000000000600700D4062708F1070020F0ED
:104B50000700F0E80223804603F0004C5FEA0C00F7
:104B600001D097A009E0200501D596A005E0E00757
:104B700001D095A001E0AFF24C001390307823F003
:104B8000004365280CD006DC452809D046281DD0F6
:104B900047287FD13BE0662818D067287AD136E0D5
:104BA0000021112F01DB112000E0781CCDE900016C
:104BB00004A90CA8FFF7EEFCDDE90D010C9A4FF0FB
:104BC000000B07F10109109200914EE04FF00040F8
:104BD0000097CDE9011004A90CA8FFF7DBFCDDE983
:104BE0000D020C9B0F994FF0000B91461093009211
:104BF00011B9791C00EB0109B7EB090003D4C0F12E
:104C0000FF3B07F10109A9EB0700019042E0012FEA
:104C100000DA01270021112F01DD112000E03846C4
:104C2000CDE9000104A90CA8FFF7B4FCDDE90D01F2
:104C30000C9A00914FF0000BB946109221070FD447
:104C4000009A4A4503DA914601E0A9F10109B9F158
:104C5000010F05DD109AA9F10101515C3029F4D052
:104C6000B84202DA10F1040F03DA0121CDE9011094
:104C700010E0002803DC8344A9EB000102E0411CA2
:104C8000494500DD8946A0EB0B00401C01904FF028
:104C900000400290200705D40198484502DB4FF000
:104CA000FF30019000208DF84B0002980DF14B076A
:104CB000B0F1004F25D002200C902B200D900298CF
:104CC00000280CDA404202902D200D9007E00A21C6
:104CD0000298FBF783FC3031029007F8011D0C9914
:104CE000481E0C900029F2DC02980028EFD1791EB2
:104CF0000D980870307800F0200040F0450007F86B
:104D0000020D11A8C01BC01D02901398007800B1BD
:104D1000012000EB0901019801EBE07102980144C8
:104D20000398401A401E0390E00306D453462146E0
:104D3000179A039800F05CF805441398007818B1AE
:104D40005246179990476D1CE00323D553462146E0
:104D5000179A039800F04CF805441BE0BBF1000FD4
:104D600007DB0098584504DD1098179910F80B00E0
:104D700001E0179930205246904701980BF1010B42
:104D8000401E05F10105019004D12E2052461799CD
:104D900090476D1CB9F10001A9F10109DEDC05E0C5
:104DA00017F8010B5246179990476D1C0299481E3F
:104DB00002900029F4DC53462146179A03989EE698
:104DC0002D0000002B000000200000002DE9F04124
:104DD000044600251E461746880404D405E03946DB
:104DE0002020B0476D1C641EF9D52846BDE8F0812F
:104DF0002DE9F041044600251E469046C80301D522
:104E0000302700E02027880404D505E041463846D5
:104E1000B0476D1C641EF9D52846BDE8F0810A68CC
:104E2000531C0B601070704710B504460020E070F2
:104E3000401E2063204601F074FB08B1042010BD21
:104E400004F2322001F032F9A0F52A41553901D09F
:104E5000032010BD94F83400E92805D0EB2814D1C4
:104E600094F83600902810D104F16A0001F013F98B
:104E70000749B1EB002F06D004F1860001F00BF9D1
:104E80000449884201D1002010BD022010BD00005D
:104E90000046415446415433F0B50022144D1346A8
:104EA00005EB021426685EB10768BE4209D1666848
:104EB0008768BE4205D1A4684669B44204D000E0C8
:104EC0000123521C022AEBD3022A01D069B904E063
:104ED0004BB9022907D01220F0BD05EB02108089E2
:104EE000B0F5807F01D00020F0BD1020F0BD0000A3
:104EF000F408002030B50021054B0C4603EB0112ED
:104F00001568854200D11460491C0229F6D330BDD2
:104F1000F40800200268490AC06A5289B1FBF2F124
:104F2000001D04C81AB1914203D3891AF8E7002082
:104F300070470068084470478269891E921E8A4241
:104F400001D800207047C26A408901FB00207047E9
:104F50002DE9F04105680F00804606D000F092FF71
:104F6000022809D20120BDE8F0812E6916B1A86996
:104F7000B04207D8012605E0411CF4D0A96981425E
:104F8000F1D83E463446A869641CA04202D80224E7
:104F9000022E0AD32146404600F074FF38B10128A2
:104FA000E1D0411CDFD0B442EDD10020DBE74FF06F
:104FB000FF3632462146284601F07FFC30B957B112
:104FC00022463946284601F078FC20B101280FD04E
:104FD00001242046C7E72C61D5E90501891E8842D6
:104FE00001D8401E6861287940F001002871F0E77F
:104FF0003446EEE72DE9F0410E4624300D680446B4
:105000000B22202101F086FA0020014608272A5CA5
:10501000401C202A12D92F2A0BD05C2A09D02E2A14
:1050200001D0B94214D30B2F22D02E2A20D10CE06C
:10503000401C2B5C2F2BFBD05C2BF9D0284430601C
:10504000B1B12078E5281FD020E008210B27DEE74A
:10505000802A03D3114B1A4412F8802C10A300E0CD
:105060005B1C93F800C0BCF1000F04D09445F7D14D
:105070000620BDE8F081A2F16103192B01D8203A86
:10508000D2B26254491CC2E705202070202A01D800
:10509000042000E00020E0720020EAE7D479000854
:1050A000222A2B2C3A3B3C3D3E3F5B5D7C7F00003F
:1050B000401E022812D20A4901EB00118889B0F57E
:1050C000807F05D008B1401E80B2888110B103E016
:1050D0000020FAE700200860002070470220704797
:1050E000F408002031B5084D6C68FDF795F80749C4
:1050F000B0FBF1F000994843009068680099001BEC
:105100008842FAD338BD0000001000E040420F0092
:105110002DE9F04104460021056800F017F9002848
:1051200026D12846E16901F0FCF902001FD1206A6E
:10513000017899B1C17A01F03F01A171C17A0907E3
:105140000FD404F124010B2610F8013B11F8017B68
:10515000DB1B761E04D0002BF6D002E0042206E012
:105160002BB10021204600F005F80200D9D01046EE
:10517000BDE8F0812DE9F047054647690468C0693C
:105180008946203710B1B7F5001F02D30420BDE8CF
:10519000F087F90560D1401CE861A9694FF000086B
:1051A00029B16089401E10EA572F05D054E02089AC
:1051B000B0EB571F1DD94FE0284600F063FE0646AE
:1051C00001281BD9701C33D0A069B0423ED8B9F178
:1051D000000F0ED02846A969FFF7BAFE06000BD0D3
:1051E000012E0BD0701C23D0204601F061FDF8B9D0
:1051F00006E0C5F81C80C9E70720C8E70220C6E71B
:105200004FF40072002104F1340001F083F94FF0F3
:10521000000831462046FFF78FFE4FF0010920635A
:105220000DE000BF84F80390204601F041FD08B175
:105230000120ACE7206B08F10108401C2063618964
:105240004145EFD8216BA1EB080020633146204691
:10525000AE61FFF771FEE861C7F308002044343007
:105260006F612862002092E770B504460E46042064
:10527000256821E0284601F054F910BB226A117814
:10528000B1B1D27AE52902F03F02A2710AD02E29EB
:1052900008D00F2A06D022F0200108290AD00021C8
:1052A000B14210D000212046FFF764FF20B108E092
:1052B000042006E00121F3E7E1690029DAD10028A2
:1052C00001D00021E16170BD70B50446002106687F
:1052D00000F03CF80DE03046E16901F022F950B9E8
:1052E000206A0078E52809D040B101212046FFF767
:1052F00041FF0028EFD0042807D007E03046E169DD
:1053000001F00FF9050003D00FE0072005460CE07F
:1053100020220021206A01F0FDF80B2204F1240173
:10532000206A01F0EDF80120F070284670BD70B5DC
:1053300005680446C169284601F0F3F8002804D145
:10534000226AE52111700121E97070BD2DE9F0415B
:1053500007680E460546B1F5001F36D2F00634D177
:105360006E61AC6824B93878032805D3BC6A1CB1D7
:1053700078894FEA402812E03889B0EB561F24D9CB
:10538000B86A12E0284600F07DFD0446401C1AD0A1
:10539000022C1AD3B869A04217D9A6EB08064645D5
:1053A0002146EFD23846FFF7C7FDC5E9064060B198
:1053B00000EB5620E861C6F3080038443430286218
:1053C0000020BDE8F0810120FBE70220F9E70000A2
:1053D000084910B50B5C002253B901220A540A187F
:1053E00001EB8000127A4068016810468847024647
:1053F000104610BD1409002030B4054C231804EBEE
:1054000080001B7A406804691846A44630BC604797
:105410001409002030B4054D2C1805EB8000247AC7
:10542000406885682046AC4630BC604714090020BF
:10543000044A111802EB8000097A40684268084665
:10544000104700001409002030B4054D2C1805EB5E
:105450008000247A4068C5682046AC4630BC60476E
:105460001409002038B5054600F001FA04000FD1F8
:105470006946284601F0FCFD040009D12869FFF7C0
:1054800017FE040000D128600021009801F039FCCB
:10549000204638BD38B50546694601F0E9FD0400EF
:1054A0000BD1286918B1FFF703FE040001D10020D9
:1054B00028600021009801F024FC204638BD00003F
:1054C0002DE9F74181B0904602980090684600F0BF
:1054D0006BFD040003D50B2004B0BDE8F081164E2F
:1054E000002756F824503DB12846FFF703FDE86831
:1054F00000F04DFB88B12F70019929B101F80C7BA8
:10550000E0B200F036FB40B1019846F8240010B13B
:10551000B8F1010F03D00020DEE70220DCE7002213
:1055200001A902A800F044FB04460146019801F0DD
:10553000E8FB2046D0E70000AC0000202DE9F7434F
:1055400092B005000BD002F03F063246694613A820
:1055500000F02EFB04004FF0000804D0ECE009201E
:1055600015B0BDE8F0830098059005A8139900F0E8
:105570004FFC04000ED19DF84300000601D506241F
:1055800008E0700801D0012100E0002105A8FFF724
:1055900083FC044616F01C0F5DD04FF00109C4B126
:1055A000042C10D10020694902E0401C022804D2DA
:1055B00001EB00121268002AF7D1022807D005A8D3
:1055C000FFF782FE044646F008065CB1B4E0122400
:1055D000B2E09DF81A0010F0110F47D1700701D505
:1055E0000824A9E0300747D500F0ABFC07460D982A
:1055F00039460E3001F00CFB0D983946163001F09B
:1056000007FB0D982021C1720D99009800F030FD24
:10561000074600220D99009801F0E6FA0D98002146
:105620001C3001F0F5FA009981F8039017B3D1F816
:1056300030900022394605A801F050FA04007BD1D1
:105640004946009800F06DFF04000098A7F101079B
:1056500007610DD070E0ECBB9DF81A00C10601D5C2
:10566000042469E0B10703D5C00701D0072463E033
:10567000300701D546F040060098006B68620D982F
:10568000A862700801D0012100E0002105A800F007
:10569000AFFC2861B8B30D99009800F0E9FCA86050
:1056A0000D981C3000F0F7FCC5F82C80E8600099DC
:1056B0002960009905F130004FF40072C988A98073
:1056C0002E7585F81580C5F8208000218146C5F823
:1056D000188000E030E000F01DFFB0062ED5EE6827
:1056E00066B3AE610098A968408947020FE028467A
:1056F00000F0C8FB0146012800D80224481C03D052
:10570000F61B24B105E01FE00124F61B01E0BE42B8
:10571000EDD8E96184B9F00510D00098FFF70CFCD2
:1057200090B100EB56222A62009801234946407846
:10573000FFF770FE10B10124C5F8008021460098E3
:1057400001F0DFFA20460BE70224F5E7F408002019
:1057500073B582B0050009D00022694603A800F0A5
:1057600027FA04004FF0000603D02FE0092004B010
:1057700070BD009929602846039900F049FB040098
:1057800014D195F82F00000607D4A879C0061CD5BF
:10579000296A009800F06CFCA8600098C188A98074
:1057A00028460021FFF7D2FD040002D0042C0CD0C3
:1057B0000CE0A86838B10021284600F019FC2861E7
:1057C00028B9122402E02E6101E005242E60214652
:1057D000009801F096FA2046C9E7F8B50D4606464E
:1057E000694601F045FC040019D10146304635B147
:1057F000FFF73AFD0446042805D024B10FE0FFF777
:10580000A5FD04460BE02946304600F09CFB002134
:105810003046FFF7AFFC0446042800D1002421469F
:10582000009801F06EFA2046F8BD33B58DB00D46F4
:10583000002269460DA800F0BBF9040010D16846AB
:105840000D9900F0E5FA04000AD19DF82F0000063A
:1058500001D5062404E01DB12946684600F073FB1B
:105860002146009801F04DFA0FB0204630BDF8B542
:105870000446694601F0FCFB050043D1207D41064A
:1058800040D5000612D50098226A0123407804F121
:105890003001FFF7D9FD28B10121009801F031FA5C
:1058A0000120F8BD207D00F07F00207500F049FB4D
:1058B0000646616A009800F034FE050022D1A56A10
:1058C0002946E87A40F02000E872A268206801F0DA
:1058D0008BF905F11C00E16801F09AF9314605F1F8
:1058E000160001F095F9002105F1120001F098F978
:1058F00000980121C17001F097F90546207D00F064
:10590000BF0020752946009801F0FBF92846F8BD34
:1059100031B59AB002220CA91AA800F049F9040086
:105920000C98009043D168461A9900F071FA04006F
:105930003DD102216846FFF7AFFA040037D19DF848
:105940002F00000601D5062431E09DF80600C007AF
:105950001AD108990C9800F08BFB05469DF80600BB
:10596000C00613D50C980E90002110950EA8FFF7D5
:10597000EDFC04001BD100210EA8FFF775FC04000C
:1059800002D0042C02D012E0072410E06846FFF792
:10599000CEFC04000BD135B100222946684601F047
:1059A0009DF8040003D10C9801F03EF9044621460D
:1059B0000C9801F0A6F91BB0204630BD2DE9FE4F32
:1059C00088460021196099461546044602A901F04F
:1059D0004FFB060001D1667D36B13146029801F0D9
:1059E00090F93046BDE8FE8F207D800705D4072161
:1059F000029801F086F90720F4E7A069012742190F
:105A00004FF0020A04F1300B824200D2C543A3E0FA
:105A1000A169C8057DD102984089401E10EA51262F
:105A200018D129B1E06A38B12046FFF773FA07E0D0
:105A3000A06838B9002100E0E1692046FFF788FA44
:105A400000287DD001282DD0411C58D0E061A168EC
:105A500001B9A060207D00060BD50298226A0123BF
:105A600040785946FFF7F0FCC0BB207D00F07F0076
:105A70002075E1690298FFF75FFA98B13044019010
:105A8000680A00902BD03218029841898A4201D9C5
:105A9000891B0091DDE9003240784146FFF7D4FCD4
:105AA000E0B907E084F815A00221029801F029F975
:105AB000022097E7216A0198081A009988420AD2C1
:105AC00008EB40214FF40072584600F019FD207D8C
:105AD00000F07F002075009846022CE00FE0216A5C
